:02000000632A71
:10000800FF00030E8301AC000A08AD008A018B1CB7
:1000180011288B10A20A0319A30A2D088A002C0E96
:080028008300FF0E7F0E0900AA
:10003000710DF80DF90D7408F8027508031C750FA1
:10004000F902F00DF10D0F30FC00710DF80DF90DF6
:100050007408701C3128F8027508031C750FF9022A
:100060003628F80775080318750FF907F00DF10D1C
:10007000FC0B2528701842287408F8077508031827
:08008000750FF90700000800EC
:10008800831203137408003A031D53287508003AB5
:10009800031D5328FF30F0007F30F100AC28831295
:1000A8000313FD01F901F801710870040319003404
:1000B80071087506FA00FA1BFD09FB01F51F69288E
:1000C800F409F509F40A0319F50AF11F7028F00973
:1000D800F109F00A0319F10A71087504FA00FA1B0C
:1000E800852818207B189828FD1F0034F009F1098D
:1000F800F00A0319F10AF809F909F80A0319F90AC3
:100108000034F51F9428F11B90287108F900700835
:10011800F800F101F0017828F101F001F00A00344B
:10012800F109F009FB0A7528F80A0319F90A740895
:100138007802031D782875087902031D7828F901CB
:10014800F801F00A0319F10AF11F78280000FF34BA
:0201580008009D
:10015A000A3083120313F4000030F5003008F0006F
:10016A003108F10044207808F0007908F10070089D
:10017A00B2007108B3003208A8003308A9000A3097
:10018A00F4000030F5003008F0003108F100442096
:10019A007008AA007108AB000430F3007008F2007E
:1001AA0073080319DC28F20D7210FF3ED628720874
:1001BA0032078800861406150B30FB002630FC0037
:1001CA005D30FD00FD0BE728FC0BE728FB0BE72859
:0601DA0000000000080017
:0E01E0008312031327088A00260882000800F5
:1001EE00831203132E08A0002F08A10080302106D1
:1001FE00F00080307002031D062900302002031C1F
:10020E004B292008B0002108B100AD208030F0004D
:10021E00803021067002031D16292008033C0318A6
:10022E002B2987150715871B2B290611061921293E
:10023E008610222986140330A2000030A30001305C
:10024E00A4000030A5004B298030F000803021063C
:10025E007002031D34292008033C031C4629871510
:10026E0007118714871B4629061106194029861087
:10027E00412986140430A2000030A3004B2901301E
:10028E00A002031CA103FD2800302106031D5129E5
:10029E0000302006031D5529A401A50187118710E2
:0402AE00071108002C
:1002B2000F3083120313A0000030A100803021060A
:1002C200F00080307002031D682900302002031CF8
:1002D200A9298030F000803021067002031D7329A5
:1002E2002008033C0318842907148716871B8429D6
:1002F200061106197E2986107F2986140130A20074
:100302000030A300A9292008B0002108B100AD20C7
:100312008030F000803021067002031D92292008EF
:10032200033C031CA429071487120716871BA42960
:10033200061106199E2986109F2986140230A200F2
:100342000030A300A9290130A002031CA1035F29E8
:10035200071007121730A0000030A10080302106DC
:10036200F00080307002031DB82900302002031C07
:100372000D2A00302306031DC0290130220603196D
:10038200CB2900302306031DC82902302206031997
:10039200CB29CC290D2AA201A3018030F0008030A4
:1003A20021067002031DD7292008033C0318E829FF
:1003B200871BE62906110619E0298610E129861411
:1003C2000330A2000030A3000D2A8715071520086C
:1003D200B0002108B100AD208030F000803021064D
:1003E2007002031DF6292008033C031C082A871506
:1003F20007118714871B082A06110619022A86107C
:10040200032A86140430A2000030A3000D2A013012
:10041200A002031CA103AF298711871087120800CD
:10042200831203132E08A0002F08A100803021069A
:10043200F00080307002031D202A00302002031CCD
:10044200542A2008B0002108B100AD20871B342AAD
:10045200061106192E2A86102F2A86140130A200B0
:100462000030A300542A8030F00080302106700250
:10047200031D3D2A2008033C031C4F2A0714871240
:100482000716871B4F2A06110619492A86104A2A7F
:1004920086140230A2000030A300542A0130A002C8
:0C04A200031CA103172A07100712080012
:1004AE00F0208A110A128000840AA60A0319A70AEC
:0804BE00F003031D572A08009A
:1004C60083120313A001A101A201A301A401A501A6
:1004D600073083169F000130860083128601803024
:1004E6008316870083128701831688018312880189
:1004F600871F7F2A59217B2A871F842A871B842AE4
:10050600252B871F882A5921842A0B168B178316B9
:100516000117003083122306031D932A0130220699
:10052600031D9C2A871F992A5921952A0714871685
:100536008C2A00302306031DA22A02302206031D40
:10054600C72A0714871207161F30FB007130FC00FC
:100556001E30FD00FD0BAD2AFC0BAD2AFB0BAD2AB0
:1005660000000330A2000030A300871FC62A033014
:10057600AE000030AF0011221730AE000030AF00E1
:10058600F7205921B82A9C2A00302306031DCD2ABC
:1005960003302206031DEB2A0710871507150712DD
:1005A600871FEA2A1730AE000030AF00F720003070
:1005B6002506031DE02A01302406031DE82A17300C
:1005C600AE000030AF00F720DA2A5921D32AC72A15
:1005D60000302306031DF12A04302206031D112BC9
:1005E6008715071187141F30FB007130FC001E3081
:1005F600FD00FD0BFC2AFC0BFC2AFB0BFC2A000071
:100606000530A2000030A300871F102B0330AE0078
:100616000030AF00F7205921072BEB2A00302306C4
:10062600031D172B05302206031D242B871F1D2BA8
:100636005921192B871187100130A2000030A30021
:08064600112B7F2A7B2A262BD1
:02400E004A2F37
:00000001FF
